{
  "_format": "hh-sol-artifact-1",
  "contractName": "NFTMarketplace",
  "sourceName": "contracts/NFTMarket.sol",
  "abi": [
    {
      "inputs": [],
      "stateMutability": "nonpayable",
      "type": "constructor"
    },
    {
      "anonymous": false,
      "inputs": [
        {
          "indexed": true,
          "internalType": "address",
          "name": "owner",
          "type": "address"
        },
        {
          "indexed": true,
          "internalType": "address",
          "name": "approved",
          "type": "address"
        },
        {
          "indexed": true,
          "internalType": "uint256",
          "name": "tokenId",
          "type": "uint256"
        }
      ],
      "name": "Approval",
      "type": "event"
    },
    {
      "anonymous": false,
      "inputs": [
        {
          "indexed": true,
          "internalType": "address",
          "name": "owner",
          "type": "address"
        },
        {
          "indexed": true,
          "internalType": "address",
          "name": "operator",
          "type": "address"
        },
        {
          "indexed": false,
          "internalType": "bool",
          "name": "approved",
          "type": "bool"
        }
      ],
      "name": "ApprovalForAll",
      "type": "event"
    },
    {
      "anonymous": false,
      "inputs": [
        {
          "indexed": false,
          "internalType": "uint256",
          "name": "_fromTokenId",
          "type": "uint256"
        },
        {
          "indexed": false,
          "internalType": "uint256",
          "name": "_toTokenId",
          "type": "uint256"
        }
      ],
      "name": "BatchMetadataUpdate",
      "type": "event"
    },
    {
      "anonymous": false,
      "inputs": [
        {
          "indexed": true,
          "internalType": "uint256",
          "name": "tokenId",
          "type": "uint256"
        },
        {
          "indexed": false,
          "internalType": "address",
          "name": "seller",
          "type": "address"
        },
        {
          "indexed": false,
          "internalType": "address",
          "name": "owner",
          "type": "address"
        },
        {
          "indexed": false,
          "internalType": "uint256",
          "name": "price",
          "type": "uint256"
        },
        {
          "indexed": false,
          "internalType": "bool",
          "name": "sold",
          "type": "bool"
        }
      ],
      "name": "MarketItemCreated",
      "type": "event"
    },
    {
      "anonymous": false,
      "inputs": [
        {
          "indexed": false,
          "internalType": "uint256",
          "name": "_tokenId",
          "type": "uint256"
        }
      ],
      "name": "MetadataUpdate",
      "type": "event"
    },
    {
      "anonymous": false,
      "inputs": [
        {
          "indexed": true,
          "internalType": "address",
          "name": "from",
          "type": "address"
        },
        {
          "indexed": true,
          "internalType": "address",
          "name": "to",
          "type": "address"
        },
        {
          "indexed": true,
          "internalType": "uint256",
          "name": "tokenId",
          "type": "uint256"
        }
      ],
      "name": "Transfer",
      "type": "event"
    },
    {
      "inputs": [
        {
          "internalType": "address",
          "name": "to",
          "type": "address"
        },
        {
          "internalType": "uint256",
          "name": "tokenId",
          "type": "uint256"
        }
      ],
      "name": "approve",
      "outputs": [],
      "stateMutability": "nonpayable",
      "type": "function"
    },
    {
      "inputs": [
        {
          "internalType": "address",
          "name": "owner",
          "type": "address"
        }
      ],
      "name": "balanceOf",
      "outputs": [
        {
          "internalType": "uint256",
          "name": "",
          "type": "uint256"
        }
      ],
      "stateMutability": "view",
      "type": "function"
    },
    {
      "inputs": [
        {
          "internalType": "uint256",
          "name": "tokenId",
          "type": "uint256"
        }
      ],
      "name": "cancelItemListing",
      "outputs": [],
      "stateMutability": "nonpayable",
      "type": "function"
    },
    {
      "inputs": [
        {
          "internalType": "uint256",
          "name": "tokenId",
          "type": "uint256"
        }
      ],
      "name": "createMarketSale",
      "outputs": [],
      "stateMutability": "payable",
      "type": "function"
    },
    {
      "inputs": [
        {
          "internalType": "string",
          "name": "tokenURI",
          "type": "string"
        },
        {
          "internalType": "uint256",
          "name": "price",
          "type": "uint256"
        }
      ],
      "name": "createToken",
      "outputs": [
        {
          "internalType": "uint256",
          "name": "",
          "type": "uint256"
        }
      ],
      "stateMutability": "payable",
      "type": "function"
    },
    {
      "inputs": [],
      "name": "fetchItemsListed",
      "outputs": [
        {
          "components": [
            {
              "internalType": "uint256",
              "name": "tokenId",
              "type": "uint256"
            },
            {
              "internalType": "address payable",
              "name": "seller",
              "type": "address"
            },
            {
              "internalType": "address payable",
              "name": "owner",
              "type": "address"
            },
            {
              "internalType": "uint256",
              "name": "price",
              "type": "uint256"
            },
            {
              "internalType": "bool",
              "name": "sold",
              "type": "bool"
            }
          ],
          "internalType": "struct NFTMarketplace.MarketItem[]",
          "name": "",
          "type": "tuple[]"
        }
      ],
      "stateMutability": "view",
      "type": "function"
    },
    {
      "inputs": [],
      "name": "fetchMarketItems",
      "outputs": [
        {
          "components": [
            {
              "internalType": "uint256",
              "name": "tokenId",
              "type": "uint256"
            },
            {
              "internalType": "address payable",
              "name": "seller",
              "type": "address"
            },
            {
              "internalType": "address payable",
              "name": "owner",
              "type": "address"
            },
            {
              "internalType": "uint256",
              "name": "price",
              "type": "uint256"
            },
            {
              "internalType": "bool",
              "name": "sold",
              "type": "bool"
            }
          ],
          "internalType": "struct NFTMarketplace.MarketItem[]",
          "name": "",
          "type": "tuple[]"
        }
      ],
      "stateMutability": "view",
      "type": "function"
    },
    {
      "inputs": [],
      "name": "fetchMyNFTs",
      "outputs": [
        {
          "components": [
            {
              "internalType": "uint256",
              "name": "tokenId",
              "type": "uint256"
            },
            {
              "internalType": "address payable",
              "name": "seller",
              "type": "address"
            },
            {
              "internalType": "address payable",
              "name": "owner",
              "type": "address"
            },
            {
              "internalType": "uint256",
              "name": "price",
              "type": "uint256"
            },
            {
              "internalType": "bool",
              "name": "sold",
              "type": "bool"
            }
          ],
          "internalType": "struct NFTMarketplace.MarketItem[]",
          "name": "",
          "type": "tuple[]"
        }
      ],
      "stateMutability": "view",
      "type": "function"
    },
    {
      "inputs": [
        {
          "internalType": "uint256",
          "name": "tokenId",
          "type": "uint256"
        }
      ],
      "name": "getApproved",
      "outputs": [
        {
          "internalType": "address",
          "name": "",
          "type": "address"
        }
      ],
      "stateMutability": "view",
      "type": "function"
    },
    {
      "inputs": [],
      "name": "getListingPrice",
      "outputs": [
        {
          "internalType": "uint256",
          "name": "",
          "type": "uint256"
        }
      ],
      "stateMutability": "view",
      "type": "function"
    },
    {
      "inputs": [
        {
          "internalType": "address",
          "name": "owner",
          "type": "address"
        },
        {
          "internalType": "address",
          "name": "operator",
          "type": "address"
        }
      ],
      "name": "isApprovedForAll",
      "outputs": [
        {
          "internalType": "bool",
          "name": "",
          "type": "bool"
        }
      ],
      "stateMutability": "view",
      "type": "function"
    },
    {
      "inputs": [],
      "name": "name",
      "outputs": [
        {
          "internalType": "string",
          "name": "",
          "type": "string"
        }
      ],
      "stateMutability": "view",
      "type": "function"
    },
    {
      "inputs": [
        {
          "internalType": "uint256",
          "name": "tokenId",
          "type": "uint256"
        }
      ],
      "name": "ownerOf",
      "outputs": [
        {
          "internalType": "address",
          "name": "",
          "type": "address"
        }
      ],
      "stateMutability": "view",
      "type": "function"
    },
    {
      "inputs": [
        {
          "internalType": "uint256",
          "name": "tokenId",
          "type": "uint256"
        },
        {
          "internalType": "uint256",
          "name": "price",
          "type": "uint256"
        }
      ],
      "name": "resellToken",
      "outputs": [],
      "stateMutability": "payable",
      "type": "function"
    },
    {
      "inputs": [
        {
          "internalType": "address",
          "name": "from",
          "type": "address"
        },
        {
          "internalType": "address",
          "name": "to",
          "type": "address"
        },
        {
          "internalType": "uint256",
          "name": "tokenId",
          "type": "uint256"
        }
      ],
      "name": "safeTransferFrom",
      "outputs": [],
      "stateMutability": "nonpayable",
      "type": "function"
    },
    {
      "inputs": [
        {
          "internalType": "address",
          "name": "from",
          "type": "address"
        },
        {
          "internalType": "address",
          "name": "to",
          "type": "address"
        },
        {
          "internalType": "uint256",
          "name": "tokenId",
          "type": "uint256"
        },
        {
          "internalType": "bytes",
          "name": "data",
          "type": "bytes"
        }
      ],
      "name": "safeTransferFrom",
      "outputs": [],
      "stateMutability": "nonpayable",
      "type": "function"
    },
    {
      "inputs": [
        {
          "internalType": "address",
          "name": "operator",
          "type": "address"
        },
        {
          "internalType": "bool",
          "name": "approved",
          "type": "bool"
        }
      ],
      "name": "setApprovalForAll",
      "outputs": [],
      "stateMutability": "nonpayable",
      "type": "function"
    },
    {
      "inputs": [
        {
          "internalType": "bytes4",
          "name": "interfaceId",
          "type": "bytes4"
        }
      ],
      "name": "supportsInterface",
      "outputs": [
        {
          "internalType": "bool",
          "name": "",
          "type": "bool"
        }
      ],
      "stateMutability": "view",
      "type": "function"
    },
    {
      "inputs": [],
      "name": "symbol",
      "outputs": [
        {
          "internalType": "string",
          "name": "",
          "type": "string"
        }
      ],
      "stateMutability": "view",
      "type": "function"
    },
    {
      "inputs": [
        {
          "internalType": "uint256",
          "name": "tokenId",
          "type": "uint256"
        }
      ],
      "name": "tokenURI",
      "outputs": [
        {
          "internalType": "string",
          "name": "",
          "type": "string"
        }
      ],
      "stateMutability": "view",
      "type": "function"
    },
    {
      "inputs": [
        {
          "internalType": "address",
          "name": "from",
          "type": "address"
        },
        {
          "internalType": "address",
          "name": "to",
          "type": "address"
        },
        {
          "internalType": "uint256",
          "name": "tokenId",
          "type": "uint256"
        }
      ],
      "name": "transferFrom",
      "outputs": [],
      "stateMutability": "nonpayable",
      "type": "function"
    },
    {
      "inputs": [
        {
          "internalType": "uint256",
          "name": "_listingPrice",
          "type": "uint256"
        }
      ],
      "name": "updateListingPrice",
      "outputs": [],
      "stateMutability": "payable",
      "type": "function"
    }
  ],
  "bytecode": "0x608060405266038d7ea4c680006009553480156200001c57600080fd5b506040518060400160405280600e81526020017f50686f656e697820546f6b656e730000000000000000000000000000000000008152506040518060400160405280600481526020017f50484f450000000000000000000000000000000000000000000000000000000081525081600090816200009a919062000370565b508060019081620000ac919062000370565b50505033600a60006101000a81548173ffffffffffffffffffffffffffffffffffffffff021916908373ffffffffffffffffffffffffffffffffffffffff16021790555062000457565b600081519050919050565b7f4e487b7100000000000000000000000000000000000000000000000000000000600052604160045260246000fd5b7f4e487b7100000000000000000000000000000000000000000000000000000000600052602260045260246000fd5b600060028204905060018216806200017857607f821691505b6020821081036200018e576200018d62000130565b5b50919050565b60008190508160005260206000209050919050565b60006020601f8301049050919050565b600082821b905092915050565b600060088302620001f87fffffffffffffffffffffffffffffffffffffffffffffffffffffffffffffffff82620001b9565b620002048683620001b9565b95508019841693508086168417925050509392505050565b6000819050919050565b6000819050919050565b6000620002516200024b62000245846200021c565b62000226565b6200021c565b9050919050565b6000819050919050565b6200026d8362000230565b620002856200027c8262000258565b848454620001c6565b825550505050565b600090565b6200029c6200028d565b620002a981848462000262565b505050565b5b81811015620002d157620002c560008262000292565b600181019050620002af565b5050565b601f8211156200032057620002ea8162000194565b620002f584620001a9565b8101602085101562000305578190505b6200031d6200031485620001a9565b830182620002ae565b50505b505050565b600082821c905092915050565b6000620003456000198460080262000325565b1980831691505092915050565b600062000360838362000332565b9150826002028217905092915050565b6200037b82620000f6565b67ffffffffffffffff81111562000397576200039662000101565b5b620003a382546200015f565b620003b0828285620002d5565b600060209050601f831160018114620003e85760008415620003d3578287015190505b620003df858262000352565b8655506200044f565b601f198416620003f88662000194565b60005b828110156200042257848901518255600182019150602085019450602081019050620003fb565b868310156200044257848901516200043e601f89168262000332565b8355505b6001600288020188555050505b505050505050565b61477680620004676000396000f3fe6080604052600436106101355760003560e01c80636352211e116100ab578063ae677aa31161006f578063ae677aa31461042d578063b88d4fde14610449578063be9af53614610472578063c87b56dd1461048e578063e219fc75146104cb578063e985e9c5146104e757610135565b80636352211e1461032f57806370a082311461036c57806372b3b620146103a957806395d89b41146103d9578063a22cb4651461040457610135565b806312e85585116100fd57806312e8558514610233578063202e37401461025e57806323b872dd14610289578063260070d8146102b257806342842e0e146102db57806345f8fa801461030457610135565b806301ffc9a71461013a57806306fdde0314610177578063081812fc146101a2578063095ea7b3146101df5780630f08efe014610208575b600080fd5b34801561014657600080fd5b50610161600480360381019061015c9190612e2f565b610524565b60405161016e9190612e77565b60405180910390f35b34801561018357600080fd5b5061018c610585565b6040516101999190612f22565b60405180910390f35b3480156101ae57600080fd5b506101c960048036038101906101c49190612f7a565b610617565b6040516101d69190612fe8565b60405180910390f35b3480156101eb57600080fd5b506102066004803603810190610201919061302f565b61065d565b005b34801561021457600080fd5b5061021d610774565b60405161022a91906131c5565b60405180910390f35b34801561023f57600080fd5b506102486109db565b60405161025591906131f6565b60405180910390f35b34801561026a57600080fd5b506102736109e5565b60405161028091906131c5565b60405180910390f35b34801561029557600080fd5b506102b060048036038101906102ab9190613211565b610ccf565b005b3480156102be57600080fd5b506102d960048036038101906102d49190612f7a565b610d2f565b005b3480156102e757600080fd5b5061030260048036038101906102fd9190613211565b610f9a565b005b34801561031057600080fd5b50610319610fba565b60405161032691906131c5565b60405180910390f35b34801561033b57600080fd5b5061035660048036038101906103519190612f7a565b6112a4565b6040516103639190612fe8565b60405180910390f35b34801561037857600080fd5b50610393600480360381019061038e9190613264565b61132a565b6040516103a091906131f6565b60405180910390f35b6103c360048036038101906103be91906133c6565b6113e1565b6040516103d091906131f6565b60405180910390f35b3480156103e557600080fd5b506103ee611423565b6040516103fb9190612f22565b60405180910390f35b34801561041057600080fd5b5061042b6004803603810190610426919061344e565b6114b5565b005b61044760048036038101906104429190612f7a565b6114cb565b005b34801561045557600080fd5b50610470600480360381019061046b919061352f565b611565565b005b61048c60048036038101906104879190612f7a565b6115c7565b005b34801561049a57600080fd5b506104b560048036038101906104b09190612f7a565b611805565b6040516104c29190612f22565b60405180910390f35b6104e560048036038101906104e091906135b2565b611917565b005b3480156104f357600080fd5b5061050e600480360381019061050991906135f2565b611b0c565b60405161051b9190612e77565b60405180910390f35b6000634906490660e01b7bffffffffffffffffffffffffffffffffffffffffffffffffffffffff1916827bffffffffffffffffffffffffffffffffffffffffffffffffffffffff1916148061057e575061057d82611ba0565b5b9050919050565b60606000805461059490613661565b80601f01602080910402602001604051908101604052809291908181526020018280546105c090613661565b801561060d5780601f106105e25761010080835404028352916020019161060d565b820191906000526020600020905b8154815290600101906020018083116105f057829003601f168201915b5050505050905090565b600061062282611c82565b6004600083815260200190815260200160002060009054906101000a900473ffffffffffffffffffffffffffffffffffffffff169050919050565b6000610668826112a4565b90508073ffffffffffffffffffffffffffffffffffffffff168373ffffffffffffffffffffffffffffffffffffffff16036106d8576040517f08c379a00000000000000000000000000000000000000000000000000000000081526004016106cf90613704565b60405180910390fd5b8073ffffffffffffffffffffffffffffffffffffffff166106f7611ccd565b73ffffffffffffffffffffffffffffffffffffffff161480610726575061072581610720611ccd565b611b0c565b5b610765576040517f08c379a000000000000000000000000000000000000000000000000000000000815260040161075c90613796565b60405180910390fd5b61076f8383611cd5565b505050565b606060006107826007611d8e565b905060006107906008611d8e565b61079a6007611d8e565b6107a491906137e5565b90506000808267ffffffffffffffff8111156107c3576107c261329b565b5b6040519080825280602002602001820160405280156107fc57816020015b6107e9612d66565b8152602001906001900390816107e15790505b50905060005b848110156109d0573073ffffffffffffffffffffffffffffffffffffffff16600b60006001846108329190613819565b815260200190815260200160002060020160009054906101000a900473ffffffffffffffffffffffffffffffffffffffff1673ffffffffffffffffffffffffffffffffffffffff16036109bd57600060018261088e9190613819565b90506000600b60008381526020019081526020016000209050806040518060a0016040529081600082015481526020016001820160009054906101000a900473ffffffffffffffffffffffffffffffffffffffff1673ffffffffffffffffffffffffffffffffffffffff1673ffffffffffffffffffffffffffffffffffffffff1681526020016002820160009054906101000a900473ffffffffffffffffffffffffffffffffffffffff1673ffffffffffffffffffffffffffffffffffffffff1673ffffffffffffffffffffffffffffffffffffffff168152602001600382015481526020016004820160009054906101000a900460ff1615151515815250508486815181106109a1576109a061384d565b5b602002602001018190525084806109b79061387c565b95505050505b80806109c89061387c565b915050610802565b508094505050505090565b6000600954905090565b606060006109f36007611d8e565b905060008060005b83811015610a9a573373ffffffffffffffffffffffffffffffffffffffff16600b6000600184610a2b9190613819565b815260200190815260200160002060020160009054906101000a900473ffffffffffffffffffffffffffffffffffffffff1673ffffffffffffffffffffffffffffffffffffffff1603610a87578280610a839061387c565b9350505b8080610a929061387c565b9150506109fb565b5060008267ffffffffffffffff811115610ab757610ab661329b565b5b604051908082528060200260200182016040528015610af057816020015b610add612d66565b815260200190600190039081610ad55790505b50905060005b84811015610cc4573373ffffffffffffffffffffffffffffffffffffffff16600b6000600184610b269190613819565b815260200190815260200160002060020160009054906101000a900473ffffffffffffffffffffffffffffffffffffffff1673ffffffffffffffffffffffffffffffffffffffff1603610cb1576000600182610b829190613819565b90506000600b60008381526020019081526020016000209050806040518060a0016040529081600082015481526020016001820160009054906101000a900473ffffffffffffffffffffffffffffffffffffffff1673ffffffffffffffffffffffffffffffffffffffff1673ffffffffffffffffffffffffffffffffffffffff1681526020016002820160009054906101000a900473ffffffffffffffffffffffffffffffffffffffff1673ffffffffffffffffffffffffffffffffffffffff1673ffffffffffffffffffffffffffffffffffffffff168152602001600382015481526020016004820160009054906101000a900460ff161515151581525050848681518110610c9557610c9461384d565b5b60200260200101819052508480610cab9061387c565b95505050505b8080610cbc9061387c565b915050610af6565b508094505050505090565b610ce0610cda611ccd565b82611d9c565b610d1f576040517f08c379a0000000000000000000000000000000000000000000000000000000008152600401610d1690613936565b60405180910390fd5b610d2a838383611e31565b505050565b3373ffffffffffffffffffffffffffffffffffffffff16600b600083815260200190815260200160002060010160009054906101000a900473ffffffffffffffffffffffffffffffffffffffff1673ffffffffffffffffffffffffffffffffffffffff1614610dd3576040517f08c379a0000000000000000000000000000000000000000000000000000000008152600401610dca906139c8565b60405180910390fd5b60001515600b600083815260200190815260200160002060040160009054906101000a900460ff16151514610e3d576040517f08c379a0000000000000000000000000000000000000000000000000000000008152600401610e3490613a5a565b60405180910390fd5b33600b600083815260200190815260200160002060020160006101000a81548173ffffffffffffffffffffffffffffffffffffffff021916908373ffffffffffffffffffffffffffffffffffffffff1602179055506000600b600083815260200190815260200160002060010160006101000a81548173ffffffffffffffffffffffffffffffffffffffff021916908373ffffffffffffffffffffffffffffffffffffffff1602179055506001600b600083815260200190815260200160002060040160006101000a81548160ff021916908315150217905550610f21600861212a565b600a60009054906101000a900473ffffffffffffffffffffffffffffffffffffffff1673ffffffffffffffffffffffffffffffffffffffff166108fc6009549081150290604051600060405180830381858888f19350505050158015610f8b573d6000803e3d6000fd5b50610f97303383611e31565b50565b610fb583838360405180602001604052806000815250611565565b505050565b60606000610fc86007611d8e565b905060008060005b8381101561106f573373ffffffffffffffffffffffffffffffffffffffff16600b60006001846110009190613819565b815260200190815260200160002060010160009054906101000a900473ffffffffffffffffffffffffffffffffffffffff1673ffffffffffffffffffffffffffffffffffffffff160361105c5782806110589061387c565b9350505b80806110679061387c565b915050610fd0565b5060008267ffffffffffffffff81111561108c5761108b61329b565b5b6040519080825280602002602001820160405280156110c557816020015b6110b2612d66565b8152602001906001900390816110aa5790505b50905060005b84811015611299573373ffffffffffffffffffffffffffffffffffffffff16600b60006001846110fb9190613819565b815260200190815260200160002060010160009054906101000a900473ffffffffffffffffffffffffffffffffffffffff1673ffffffffffffffffffffffffffffffffffffffff16036112865760006001826111579190613819565b90506000600b60008381526020019081526020016000209050806040518060a0016040529081600082015481526020016001820160009054906101000a900473ffffffffffffffffffffffffffffffffffffffff1673ffffffffffffffffffffffffffffffffffffffff1673ffffffffffffffffffffffffffffffffffffffff1681526020016002820160009054906101000a900473ffffffffffffffffffffffffffffffffffffffff1673ffffffffffffffffffffffffffffffffffffffff1673ffffffffffffffffffffffffffffffffffffffff168152602001600382015481526020016004820160009054906101000a900460ff16151515158152505084868151811061126a5761126961384d565b5b602002602001018190525084806112809061387c565b95505050505b80806112919061387c565b9150506110cb565b508094505050505090565b6000806112b083612140565b9050600073ffffffffffffffffffffffffffffffffffffffff168173ffffffffffffffffffffffffffffffffffffffff1603611321576040517f08c379a000000000000000000000000000000000000000000000000000000000815260040161131890613ac6565b60405180910390fd5b80915050919050565b60008073ffffffffffffffffffffffffffffffffffffffff168273ffffffffffffffffffffffffffffffffffffffff160361139a576040517f08c379a000000000000000000000000000000000000000000000000000000000815260040161139190613b58565b60405180910390fd5b600360008373ffffffffffffffffffffffffffffffffffffffff1673ffffffffffffffffffffffffffffffffffffffff168152602001908152602001600020549050919050565b60006113ed600761212a565b60006113f96007611d8e565b9050611405338261217d565b61140f818561239a565b611419818461243e565b8091505092915050565b60606001805461143290613661565b80601f016020809104026020016040519081016040528092919081815260200182805461145e90613661565b80156114ab5780601f10611480576101008083540402835291602001916114ab565b820191906000526020600020905b81548152906001019060200180831161148e57829003601f168201915b5050505050905090565b6114c76114c0611ccd565b8383612641565b5050565b600a60009054906101000a900473ffffffffffffffffffffffffffffffffffffffff1673ffffffffffffffffffffffffffffffffffffffff163373ffffffffffffffffffffffffffffffffffffffff161461155b576040517f08c379a000000000000000000000000000000000000000000000000000000000815260040161155290613bea565b60405180910390fd5b8060098190555050565b611576611570611ccd565b83611d9c565b6115b5576040517f08c379a00000000000000000000000000000000000000000000000000000000081526004016115ac90613936565b60405180910390fd5b6115c1848484846127ad565b50505050565b6000600b60008381526020019081526020016000206003015490506000600b600084815260200190815260200160002060010160009054906101000a900473ffffffffffffffffffffffffffffffffffffffff16905081341461165f576040517f08c379a000000000000000000000000000000000000000000000000000000000815260040161165690613c7c565b60405180910390fd5b33600b600085815260200190815260200160002060020160006101000a81548173ffffffffffffffffffffffffffffffffffffffff021916908373ffffffffffffffffffffffffffffffffffffffff1602179055506001600b600085815260200190815260200160002060040160006101000a81548160ff0219169083151502179055506000600b600085815260200190815260200160002060010160006101000a81548173ffffffffffffffffffffffffffffffffffffffff021916908373ffffffffffffffffffffffffffffffffffffffff160217905550611743600861212a565b61174e303385611e31565b600a60009054906101000a900473ffffffffffffffffffffffffffffffffffffffff1673ffffffffffffffffffffffffffffffffffffffff166108fc6009549081150290604051600060405180830381858888f193505050501580156117b8573d6000803e3d6000fd5b508073ffffffffffffffffffffffffffffffffffffffff166108fc839081150290604051600060405180830381858888f193505050501580156117ff573d6000803e3d6000fd5b50505050565b606061181082611c82565b600060066000848152602001908152602001600020805461183090613661565b80601f016020809104026020016040519081016040528092919081815260200182805461185c90613661565b80156118a95780601f1061187e576101008083540402835291602001916118a9565b820191906000526020600020905b81548152906001019060200180831161188c57829003601f168201915b5050505050905060006118ba612809565b905060008151036118cf578192505050611912565b6000825111156119045780826040516020016118ec929190613cd8565b60405160208183030381529060405292505050611912565b61190d84612820565b925050505b919050565b3373ffffffffffffffffffffffffffffffffffffffff16600b600084815260200190815260200160002060020160009054906101000a900473ffffffffffffffffffffffffffffffffffffffff1673ffffffffffffffffffffffffffffffffffffffff16146119bb576040517f08c379a00000000000000000000000000000000000000000000000000000000081526004016119b290613d6e565b60405180910390fd5b60095434146119ff576040517f08c379a00000000000000000000000000000000000000000000000000000000081526004016119f690613e00565b60405180910390fd5b6000600b600084815260200190815260200160002060040160006101000a81548160ff02191690831515021790555080600b60008481526020019081526020016000206003018190555033600b600084815260200190815260200160002060010160006101000a81548173ffffffffffffffffffffffffffffffffffffffff021916908373ffffffffffffffffffffffffffffffffffffffff16021790555030600b600084815260200190815260200160002060020160006101000a81548173ffffffffffffffffffffffffffffffffffffffff021916908373ffffffffffffffffffffffffffffffffffffffff160217905550611afd6008612888565b611b08333084611e31565b5050565b6000600560008473ffffffffffffffffffffffffffffffffffffffff1673ffffffffffffffffffffffffffffffffffffffff16815260200190815260200160002060008373ffffffffffffffffffffffffffffffffffffffff1673ffffffffffffffffffffffffffffffffffffffff16815260200190815260200160002060009054906101000a900460ff16905092915050565b60007f80ac58cd000000000000000000000000000000000000000000000000000000007bffffffffffffffffffffffffffffffffffffffffffffffffffffffff1916827bffffffffffffffffffffffffffffffffffffffffffffffffffffffff19161480611c6b57507f5b5e139f000000000000000000000000000000000000000000000000000000007bffffffffffffffffffffffffffffffffffffffffffffffffffffffff1916827bffffffffffffffffffffffffffffffffffffffffffffffffffffffff1916145b80611c7b5750611c7a826128e4565b5b9050919050565b611c8b8161294e565b611cca576040517f08c379a0000000000000000000000000000000000000000000000000000000008152600401611cc190613ac6565b60405180910390fd5b50565b600033905090565b816004600083815260200190815260200160002060006101000a81548173ffffffffffffffffffffffffffffffffffffffff021916908373ffffffffffffffffffffffffffffffffffffffff160217905550808273ffffffffffffffffffffffffffffffffffffffff16611d48836112a4565b73ffffffffffffffffffffffffffffffffffffffff167f8c5be1e5ebec7d5bd14f71427d1e84f3dd0314c0f7b2291e5b200ac8c7c3b92560405160405180910390a45050565b600081600001549050919050565b600080611da8836112a4565b90508073ffffffffffffffffffffffffffffffffffffffff168473ffffffffffffffffffffffffffffffffffffffff161480611dea5750611de98185611b0c565b5b80611e2857508373ffffffffffffffffffffffffffffffffffffffff16611e1084610617565b73ffffffffffffffffffffffffffffffffffffffff16145b91505092915050565b8273ffffffffffffffffffffffffffffffffffffffff16611e51826112a4565b73ffffffffffffffffffffffffffffffffffffffff1614611ea7576040517f08c379a0000000000000000000000000000000000000000000000000000000008152600401611e9e90613e92565b60405180910390fd5b600073ffffffffffffffffffffffffffffffffffffffff168273ffffffffffffffffffffffffffffffffffffffff1603611f16576040517f08c379a0000000000000000000000000000000000000000000000000000000008152600401611f0d90613f24565b60405180910390fd5b611f23838383600161298f565b8273ffffffffffffffffffffffffffffffffffffffff16611f43826112a4565b73ffffffffffffffffffffffffffffffffffffffff1614611f99576040517f08c379a0000000000000000000000000000000000000000000000000000000008152600401611f9090613e92565b60405180910390fd5b6004600082815260200190815260200160002060006101000a81549073ffffffffffffffffffffffffffffffffffffffff02191690556001600360008573ffffffffffffffffffffffffffffffffffffffff1673ffffffffffffffffffffffffffffffffffffffff168152602001908152602001600020600082825403925050819055506001600360008473ffffffffffffffffffffffffffffffffffffffff1673ffffffffffffffffffffffffffffffffffffffff16815260200190815260200160002060008282540192505081905550816002600083815260200190815260200160002060006101000a81548173ffffffffffffffffffffffffffffffffffffffff021916908373ffffffffffffffffffffffffffffffffffffffff160217905550808273ffffffffffffffffffffffffffffffffffffffff168473ffffffffffffffffffffffffffffffffffffffff167fddf252ad1be2c89b69c2b068fc378daa952ba7f163c4a11628f55a4df523b3ef60405160405180910390a46121258383836001612995565b505050565b6001816000016000828254019250508190555050565b60006002600083815260200190815260200160002060009054906101000a900473ffffffffffffffffffffffffffffffffffffffff169050919050565b600073ffffffffffffffffffffffffffffffffffffffff168273ffffffffffffffffffffffffffffffffffffffff16036121ec576040517f08c379a00000000000000000000000000000000000000000000000000000000081526004016121e390613f90565b60405180910390fd5b6121f58161294e565b15612235576040517f08c379a000000000000000000000000000000000000000000000000000000000815260040161222c90613ffc565b60405180910390fd5b61224360008383600161298f565b61224c8161294e565b1561228c576040517f08c379a000000000000000000000000000000000000000000000000000000000815260040161228390613ffc565b60405180910390fd5b6001600360008473ffffffffffffffffffffffffffffffffffffffff1673ffffffffffffffffffffffffffffffffffffffff16815260200190815260200160002060008282540192505081905550816002600083815260200190815260200160002060006101000a81548173ffffffffffffffffffffffffffffffffffffffff021916908373ffffffffffffffffffffffffffffffffffffffff160217905550808273ffffffffffffffffffffffffffffffffffffffff16600073ffffffffffffffffffffffffffffffffffffffff167fddf252ad1be2c89b69c2b068fc378daa952ba7f163c4a11628f55a4df523b3ef60405160405180910390a4612396600083836001612995565b5050565b6123a38261294e565b6123e2576040517f08c379a00000000000000000000000000000000000000000000000000000000081526004016123d99061408e565b60405180910390fd5b80600660008481526020019081526020016000209081612402919061425a565b507ff8e1a15aba9398e019f0b49df1a4fde98ee17ae345cb5f6b5e2c27f5033e8ce78260405161243291906131f6565b60405180910390a15050565b60008111612481576040517f08c379a000000000000000000000000000000000000000000000000000000000815260040161247890614378565b60405180910390fd5b60095434146124c5576040517f08c379a00000000000000000000000000000000000000000000000000000000081526004016124bc9061440a565b60405180910390fd5b6040518060a001604052808381526020013373ffffffffffffffffffffffffffffffffffffffff1681526020013073ffffffffffffffffffffffffffffffffffffffff16815260200182815260200160001515815250600b60008481526020019081526020016000206000820151816000015560208201518160010160006101000a81548173ffffffffffffffffffffffffffffffffffffffff021916908373ffffffffffffffffffffffffffffffffffffffff16021790555060408201518160020160006101000a81548173ffffffffffffffffffffffffffffffffffffffff021916908373ffffffffffffffffffffffffffffffffffffffff1602179055506060820151816003015560808201518160040160006101000a81548160ff0219169083151502179055509050506125fe333084611e31565b817fb640004f1d14576d0c209e240cad0410e0d8c0c33a09375861fbadae2588a98d3330846000604051612635949392919061447f565b60405180910390a25050565b8173ffffffffffffffffffffffffffffffffffffffff168373ffffffffffffffffffffffffffffffffffffffff16036126af576040517f08c379a00000000000000000000000000000000000000000000000000000000081526004016126a690614510565b60405180910390fd5b80600560008573ffffffffffffffffffffffffffffffffffffffff1673ffffffffffffffffffffffffffffffffffffffff16815260200190815260200160002060008473ffffffffffffffffffffffffffffffffffffffff1673ffffffffffffffffffffffffffffffffffffffff16815260200190815260200160002060006101000a81548160ff0219169083151502179055508173ffffffffffffffffffffffffffffffffffffffff168373ffffffffffffffffffffffffffffffffffffffff167f17307eab39ab6107e8899845ad3d59bd9653f200f220920489ca2b5937696c31836040516127a09190612e77565b60405180910390a3505050565b6127b8848484611e31565b6127c48484848461299b565b612803576040517f08c379a00000000000000000000000000000000000000000000000000000000081526004016127fa906145a2565b60405180910390fd5b50505050565b606060405180602001604052806000815250905090565b606061282b82611c82565b6000612835612809565b905060008151116128555760405180602001604052806000815250612880565b8061285f84612b22565b604051602001612870929190613cd8565b6040516020818303038152906040525b915050919050565b600081600001549050600081116128d4576040517f08c379a00000000000000000000000000000000000000000000000000000000081526004016128cb9061460e565b60405180910390fd5b6001810382600001819055505050565b60007f01ffc9a7000000000000000000000000000000000000000000000000000000007bffffffffffffffffffffffffffffffffffffffffffffffffffffffff1916827bffffffffffffffffffffffffffffffffffffffffffffffffffffffff1916149050919050565b60008073ffffffffffffffffffffffffffffffffffffffff1661297083612140565b73ffffffffffffffffffffffffffffffffffffffff1614159050919050565b50505050565b50505050565b60006129bc8473ffffffffffffffffffffffffffffffffffffffff16612bf0565b15612b15578373ffffffffffffffffffffffffffffffffffffffff1663150b7a026129e5611ccd565b8786866040518563ffffffff1660e01b8152600401612a079493929190614683565b6020604051808303816000875af1925050508015612a4357506040513d601f19601f82011682018060405250810190612a4091906146e4565b60015b612ac5573d8060008114612a73576040519150601f19603f3d011682016040523d82523d6000602084013e612a78565b606091505b506000815103612abd576040517f08c379a0000000000000000000000000000000000000000000000000000000008152600401612ab4906145a2565b60405180910390fd5b805181602001fd5b63150b7a0260e01b7bffffffffffffffffffffffffffffffffffffffffffffffffffffffff1916817bffffffffffffffffffffffffffffffffffffffffffffffffffffffff191614915050612b1a565b600190505b949350505050565b606060006001612b3184612c13565b01905060008167ffffffffffffffff811115612b5057612b4f61329b565b5b6040519080825280601f01601f191660200182016040528015612b825781602001600182028036833780820191505090505b509050600082602001820190505b600115612be5578080600190039150507f3031323334353637383961626364656600000000000000000000000000000000600a86061a8153600a8581612bd957612bd8614711565b5b04945060008503612b90575b819350505050919050565b6000808273ffffffffffffffffffffffffffffffffffffffff163b119050919050565b600080600090507a184f03e93ff9f4daa797ed6e38ed64bf6a1f0100000000000000008310612c71577a184f03e93ff9f4daa797ed6e38ed64bf6a1f0100000000000000008381612c6757612c66614711565b5b0492506040810190505b6d04ee2d6d415b85acef81000000008310612cae576d04ee2d6d415b85acef81000000008381612ca457612ca3614711565b5b0492506020810190505b662386f26fc100008310612cdd57662386f26fc100008381612cd357612cd2614711565b5b0492506010810190505b6305f5e1008310612d06576305f5e1008381612cfc57612cfb614711565b5b0492506008810190505b6127108310612d2b576127108381612d2157612d20614711565b5b0492506004810190505b60648310612d4e5760648381612d4457612d43614711565b5b0492506002810190505b600a8310612d5d576001810190505b80915050919050565b6040518060a0016040528060008152602001600073ffffffffffffffffffffffffffffffffffffffff168152602001600073ffffffffffffffffffffffffffffffffffffffff168152602001600081526020016000151581525090565b6000604051905090565b600080fd5b600080fd5b60007fffffffff0000000000000000000000000000000000000000000000000000000082169050919050565b612e0c81612dd7565b8114612e1757600080fd5b50565b600081359050612e2981612e03565b92915050565b600060208284031215612e4557612e44612dcd565b5b6000612e5384828501612e1a565b91505092915050565b60008115159050919050565b612e7181612e5c565b82525050565b6000602082019050612e8c6000830184612e68565b92915050565b600081519050919050565b600082825260208201905092915050565b60005b83811015612ecc578082015181840152602081019050612eb1565b60008484015250505050565b6000601f19601f8301169050919050565b6000612ef482612e92565b612efe8185612e9d565b9350612f0e818560208601612eae565b612f1781612ed8565b840191505092915050565b60006020820190508181036000830152612f3c8184612ee9565b905092915050565b6000819050919050565b612f5781612f44565b8114612f6257600080fd5b50565b600081359050612f7481612f4e565b92915050565b600060208284031215612f9057612f8f612dcd565b5b6000612f9e84828501612f65565b91505092915050565b600073ffffffffffffffffffffffffffffffffffffffff82169050919050565b6000612fd282612fa7565b9050919050565b612fe281612fc7565b82525050565b6000602082019050612ffd6000830184612fd9565b92915050565b61300c81612fc7565b811461301757600080fd5b50565b60008135905061302981613003565b92915050565b6000806040838503121561304657613045612dcd565b5b60006130548582860161301a565b925050602061306585828601612f65565b9150509250929050565b600081519050919050565b600082825260208201905092915050565b6000819050602082019050919050565b6130a481612f44565b82525050565b60006130b582612fa7565b9050919050565b6130c5816130aa565b82525050565b6130d481612e5c565b82525050565b60a0820160008201516130f0600085018261309b565b50602082015161310360208501826130bc565b50604082015161311660408501826130bc565b506060820151613129606085018261309b565b50608082015161313c60808501826130cb565b50505050565b600061314e83836130da565b60a08301905092915050565b6000602082019050919050565b60006131728261306f565b61317c818561307a565b93506131878361308b565b8060005b838110156131b857815161319f8882613142565b97506131aa8361315a565b92505060018101905061318b565b5085935050505092915050565b600060208201905081810360008301526131df8184613167565b905092915050565b6131f081612f44565b82525050565b600060208201905061320b60008301846131e7565b92915050565b60008060006060848603121561322a57613229612dcd565b5b60006132388682870161301a565b93505060206132498682870161301a565b925050604061325a86828701612f65565b9150509250925092565b60006020828403121561327a57613279612dcd565b5b60006132888482850161301a565b91505092915050565b600080fd5b600080fd5b7f4e487b7100000000000000000000000000000000000000000000000000000000600052604160045260246000fd5b6132d382612ed8565b810181811067ffffffffffffffff821117156132f2576132f161329b565b5b80604052505050565b6000613305612dc3565b905061331182826132ca565b919050565b600067ffffffffffffffff8211156133315761333061329b565b5b61333a82612ed8565b9050602081019050919050565b82818337600083830152505050565b600061336961336484613316565b6132fb565b90508281526020810184848401111561338557613384613296565b5b613390848285613347565b509392505050565b600082601f8301126133ad576133ac613291565b5b81356133bd848260208601613356565b91505092915050565b600080604083850312156133dd576133dc612dcd565b5b600083013567ffffffffffffffff8111156133fb576133fa612dd2565b5b61340785828601613398565b925050602061341885828601612f65565b9150509250929050565b61342b81612e5c565b811461343657600080fd5b50565b60008135905061344881613422565b92915050565b6000806040838503121561346557613464612dcd565b5b60006134738582860161301a565b925050602061348485828601613439565b9150509250929050565b600067ffffffffffffffff8211156134a9576134a861329b565b5b6134b282612ed8565b9050602081019050919050565b60006134d26134cd8461348e565b6132fb565b9050828152602081018484840111156134ee576134ed613296565b5b6134f9848285613347565b509392505050565b600082601f83011261351657613515613291565b5b81356135268482602086016134bf565b91505092915050565b6000806000806080858703121561354957613548612dcd565b5b60006135578782880161301a565b94505060206135688782880161301a565b935050604061357987828801612f65565b925050606085013567ffffffffffffffff81111561359a57613599612dd2565b5b6135a687828801613501565b91505092959194509250565b600080604083850312156135c9576135c8612dcd565b5b60006135d785828601612f65565b92505060206135e885828601612f65565b9150509250929050565b6000806040838503121561360957613608612dcd565b5b60006136178582860161301a565b92505060206136288582860161301a565b9150509250929050565b7f4e487b7100000000000000000000000000000000000000000000000000000000600052602260045260246000fd5b6000600282049050600182168061367957607f821691505b60208210810361368c5761368b613632565b5b50919050565b7f4552433732313a20617070726f76616c20746f2063757272656e74206f776e6560008201527f7200000000000000000000000000000000000000000000000000000000000000602082015250565b60006136ee602183612e9d565b91506136f982613692565b604082019050919050565b6000602082019050818103600083015261371d816136e1565b9050919050565b7f4552433732313a20617070726f76652063616c6c6572206973206e6f7420746f60008201527f6b656e206f776e6572206f7220617070726f76656420666f7220616c6c000000602082015250565b6000613780603d83612e9d565b915061378b82613724565b604082019050919050565b600060208201905081810360008301526137af81613773565b9050919050565b7f4e487b7100000000000000000000000000000000000000000000000000000000600052601160045260246000fd5b60006137f082612f44565b91506137fb83612f44565b9250828203905081811115613813576138126137b6565b5b92915050565b600061382482612f44565b915061382f83612f44565b9250828201905080821115613847576138466137b6565b5b92915050565b7f4e487b7100000000000000000000000000000000000000000000000000000000600052603260045260246000fd5b600061388782612f44565b91507fffffffffffffffffffffffffffffffffffffffffffffffffffffffffffffffff82036138b9576138b86137b6565b5b600182019050919050565b7f4552433732313a2063616c6c6572206973206e6f7420746f6b656e206f776e6560008201527f72206f7220617070726f76656400000000000000000000000000000000000000602082015250565b6000613920602d83612e9d565b915061392b826138c4565b604082019050919050565b6000602082019050818103600083015261394f81613913565b9050919050565b7f4f6e6c7920746865206974656d2073656c6c65722063616e20706572666f726d60008201527f2074686973206f7065726174696f6e0000000000000000000000000000000000602082015250565b60006139b2602f83612e9d565b91506139bd82613956565b604082019050919050565b600060208201905081810360008301526139e1816139a5565b9050919050565b7f4f6e6c79206974656d7320776869636820617265206e6f7420736f6c6420617260008201527f6520616c6c6f776420746f2063616e63656c0000000000000000000000000000602082015250565b6000613a44603283612e9d565b9150613a4f826139e8565b604082019050919050565b60006020820190508181036000830152613a7381613a37565b9050919050565b7f4552433732313a20696e76616c696420746f6b656e2049440000000000000000600082015250565b6000613ab0601883612e9d565b9150613abb82613a7a565b602082019050919050565b60006020820190508181036000830152613adf81613aa3565b9050919050565b7f4552433732313a2061646472657373207a65726f206973206e6f74206120766160008201527f6c6964206f776e65720000000000000000000000000000000000000000000000602082015250565b6000613b42602983612e9d565b9150613b4d82613ae6565b604082019050919050565b60006020820190508181036000830152613b7181613b35565b9050919050565b7f4f6e6c79206f776e6572206f6620746865206d61726b6574706c61636520636160008201527f6e2075706461746520746865206c697374696e67207072696365000000000000602082015250565b6000613bd4603a83612e9d565b9150613bdf82613b78565b604082019050919050565b60006020820190508181036000830152613c0381613bc7565b9050919050565b7f506c65617365207375626d6974207468652061736b696e67207072696365206960008201527f6e206f7264657220746f20636f6d706c65746520746865207075726368617365602082015250565b6000613c66604083612e9d565b9150613c7182613c0a565b604082019050919050565b60006020820190508181036000830152613c9581613c59565b9050919050565b600081905092915050565b6000613cb282612e92565b613cbc8185613c9c565b9350613ccc818560208601612eae565b80840191505092915050565b6000613ce48285613ca7565b9150613cf08284613ca7565b91508190509392505050565b7f4f6e6c7920746865206f776e65722063616e20726573656c6c20746865204e4660008201527f5400000000000000000000000000000000000000000000000000000000000000602082015250565b6000613d58602183612e9d565b9150613d6382613cfc565b604082019050919050565b60006020820190508181036000830152613d8781613d4b565b9050919050565b7f4c697374696e67207072696365206d757374206265207061696420746f206c6960008201527f7374204e465420616761696e0000000000000000000000000000000000000000602082015250565b6000613dea602c83612e9d565b9150613df582613d8e565b604082019050919050565b60006020820190508181036000830152613e1981613ddd565b9050919050565b7f4552433732313a207472616e736665722066726f6d20696e636f72726563742060008201527f6f776e6572000000000000000000000000000000000000000000000000000000602082015250565b6000613e7c602583612e9d565b9150613e8782613e20565b604082019050919050565b60006020820190508181036000830152613eab81613e6f565b9050919050565b7f4552433732313a207472616e7366657220746f20746865207a65726f2061646460008201527f7265737300000000000000000000000000000000000000000000000000000000602082015250565b6000613f0e602483612e9d565b9150613f1982613eb2565b604082019050919050565b60006020820190508181036000830152613f3d81613f01565b9050919050565b7f4552433732313a206d696e7420746f20746865207a65726f2061646472657373600082015250565b6000613f7a602083612e9d565b9150613f8582613f44565b602082019050919050565b60006020820190508181036000830152613fa981613f6d565b9050919050565b7f4552433732313a20746f6b656e20616c7265616479206d696e74656400000000600082015250565b6000613fe6601c83612e9d565b9150613ff182613fb0565b602082019050919050565b6000602082019050818103600083015261401581613fd9565b9050919050565b7f45524337323155524953746f726167653a2055524920736574206f66206e6f6e60008201527f6578697374656e7420746f6b656e000000000000000000000000000000000000602082015250565b6000614078602e83612e9d565b91506140838261401c565b604082019050919050565b600060208201905081810360008301526140a78161406b565b9050919050565b60008190508160005260206000209050919050565b60006020601f8301049050919050565b600082821b905092915050565b6000600883026141107fffffffffffffffffffffffffffffffffffffffffffffffffffffffffffffffff826140d3565b61411a86836140d3565b95508019841693508086168417925050509392505050565b6000819050919050565b600061415761415261414d84612f44565b614132565b612f44565b9050919050565b6000819050919050565b6141718361413c565b61418561417d8261415e565b8484546140e0565b825550505050565b600090565b61419a61418d565b6141a5818484614168565b505050565b5b818110156141c9576141be600082614192565b6001810190506141ab565b5050565b601f82111561420e576141df816140ae565b6141e8846140c3565b810160208510156141f7578190505b61420b614203856140c3565b8301826141aa565b50505b505050565b600082821c905092915050565b600061423160001984600802614213565b1980831691505092915050565b600061424a8383614220565b9150826002028217905092915050565b61426382612e92565b67ffffffffffffffff81111561427c5761427b61329b565b5b6142868254613661565b6142918282856141cd565b600060209050601f8311600181146142c457600084156142b2578287015190505b6142bc858261423e565b865550614324565b601f1984166142d2866140ae565b60005b828110156142fa578489015182556001820191506020850194506020810190506142d5565b868310156143175784890151614313601f891682614220565b8355505b6001600288020188555050505b505050505050565b7f5072696365206d7573742062652067726561746572207468616e203000000000600082015250565b6000614362601c83612e9d565b915061436d8261432c565b602082019050919050565b6000602082019050818103600083015261439181614355565b9050919050565b7f5072696365206d75737420626520657175616c20746f20746865206c6973746960008201527f6e67207072696365000000000000000000000000000000000000000000000000602082015250565b60006143f4602883612e9d565b91506143ff82614398565b604082019050919050565b60006020820190508181036000830152614423816143e7565b9050919050565b600061444561444061443b84612fa7565b614132565b612fa7565b9050919050565b60006144578261442a565b9050919050565b60006144698261444c565b9050919050565b6144798161445e565b82525050565b60006080820190506144946000830187614470565b6144a16020830186612fd9565b6144ae60408301856131e7565b6144bb6060830184612e68565b95945050505050565b7f4552433732313a20617070726f766520746f2063616c6c657200000000000000600082015250565b60006144fa601983612e9d565b9150614505826144c4565b602082019050919050565b60006020820190508181036000830152614529816144ed565b9050919050565b7f4552433732313a207472616e7366657220746f206e6f6e20455243373231526560008201527f63656976657220696d706c656d656e7465720000000000000000000000000000602082015250565b600061458c603283612e9d565b915061459782614530565b604082019050919050565b600060208201905081810360008301526145bb8161457f565b9050919050565b7f436f756e7465723a2064656372656d656e74206f766572666c6f770000000000600082015250565b60006145f8601b83612e9d565b9150614603826145c2565b602082019050919050565b60006020820190508181036000830152614627816145eb565b9050919050565b600081519050919050565b600082825260208201905092915050565b60006146558261462e565b61465f8185614639565b935061466f818560208601612eae565b61467881612ed8565b840191505092915050565b60006080820190506146986000830187612fd9565b6146a56020830186612fd9565b6146b260408301856131e7565b81810360608301526146c4818461464a565b905095945050505050565b6000815190506146de81612e03565b92915050565b6000602082840312156146fa576146f9612dcd565b5b6000614708848285016146cf565b91505092915050565b7f4e487b7100000000000000000000000000000000000000000000000000000000600052601260045260246000fdfea2646970667358221220c4882ebd1cca3f119cc9858705f65dbe4878258f592c79a3654e7d5e7571bc8564736f6c63430008130033",
  "linkReferences": {},
  "deployedLinkReferences": {}
}